:100000003DC0000057C0000055C0000053C00000B4
:1000100051C000004FC000004DC000004BC00000A8
:1000200049C0000047C0000045C0000043C00000B8
:1000300041C000003FC000003DC000003BC00000C8
:10004000B6C2000037C00000D1C2000033C00000BB
:100050002BC500002FC000002DC000002BC00000E9
:1000600029C0000027C0000025C0000023C00000F8
:1000700071C500001FC000001DC0000011241FBE7C
:10008000CFEFD8E0DEBFCDBF13E0A0E0B1E0E0E10C
:10009000F6E102C005900D92AC39B107D9F713E033
:1000A000ACE9B3E001C01D92A03CB107E1F703D079
:1000B0000C94060BA5CFA0E0B0E0E1E6F0E00C94D4
:1000C000B30A2FE784E89EE1215080409040E1F799
:1000D00000C0000001D498D50E9402099ED4C3D16B
:1000E00071D21ED1789408982B9813B810B880E07C
:1000F00048D48091A10387FF07C040E2E42E42E08C
:10010000F42EC0E0D0E028C030ECE32E32E0F32E35
:10011000C0E0D0E0AE01425E5F4F870122E030E0F8
:1001200060E170E088E090E0B0D22A9620E1E20E33
:10013000F11CCC33D10571F78091A10387FDDDCF90
:100140008FE097E20197F1F700C000008091A103D2
:1001500081FFF2CFA3D6F0CFAE01425E5F4F8701A1
:1001600022E030E060E170E088E090E08ED22A96F4
:1001700090E1E90EF11CCC33D10571F76091AE032B
:100180007091AF038091B0039091B10311D380912E
:10019000A10383FF1AC081E0F4D32091AE03309114
:1001A000AF034091B0035091B103A0E7B0E00E94CB
:1001B000720A2091A7033091A8034091A90350919E
:1001C000AA030E94880A822FC1D393E6B92EC12CBC
:1001D00024E0D22E8091A10380FF07C00E94140961
:1001E000D092AC03C092AB03F5CF81FF02C056D6CC
:1001F000F1CF189932C022E42A95F1F700C020917E
:100200007800309179008091AB039091AC0328176E
:10021000390748F480917800909179009093AC036D
:100220008093AB0304C086E08A95F1F700C0189B69
:100230000FC092E49A95F1F700C08091AB039091C2
:10024000AC03883E934030F661E081E001D1C2CF3B
:1002500086E08A95F1F700C0CECF84FFBBCFB09285
:10026000CE008091C80085FFFCCF87EA91E6019718
:10027000F1F700C00000C1D48111ACCF00E022E052
:1002800030E045E050E06CE270E087E790E045D276
:100290008091A10383FF1AC081E073D32091AE0344
:1002A0003091AF034091B0035091B103A0E7B0E0AB
:1002B0000E94720A2091A7033091A8034091A903DC
:1002C0005091AA030E94880A822F40D380E2E82E30
:1002D00082E0F82EC0E0D0E0AE01425E5F4F8701C1
:1002E00022E030E060E170E088E090E0CED12A9634
:1002F00090E1E90EF11CCC33D10571F76091AE03AA
:100300007091AF038091B0039091B10351D260E03E
:1003100080E19ED041E953E061E083E190D45ACF7F
:10032000CF93DF9380E090E00E94F00A8093A103D6
:1003300087E090E00E94F00A8093BC03982F990F09
:10034000890F880F885F8093BD03C3E0D0E0CE01A2
:100350000E94F00A4091A7035091A8036091A9035D
:100360007091AA03482B4093A7035093A80360936E
:10037000A9037093AA038FE097E20197F1F700C0F9
:100380000000C130A1F08091A7039091A803A09133
:10039000A903B091AA03BA2FA92F982F8827809379
:1003A000A7039093A803A093A903B093AA0321974E
:1003B00071F68091A1038F3F81F460E0CE010E942D
:1003C000F80AE7E8F3E13197F1F700C00000219661
:1003D000CA30D10591F71092A1038091A10387FF44
:1003E0002EC0C6E0D0E0CE010E94F00AE7E8F3E1BB
:1003F0003197F1F700C000004091AE035091AF0378
:100400006091B0037091B103482B2197C330D1059F
:1004100049F44093AE035093AF036093B0037093DD
:10042000B1030DC0762F652F542F44274093AE03A0
:100430005093AF036093B0037093B103D4CFDF91B7
:10044000CF9108950C94F80A08950C94F00A089539
:100450009091A103662311F0892B02C08095892316
:100460008093A1030895ECEBF0E0808184608083A9
:100470001092B900E8EBF0E08081826180830895FA
:100480009091BC00946A9093BC009091BC0097FF3F
:10049000FCCF880F8093BB0084E88093BC008091E0
:1004A000BC0087FFFCCF6093BB0084E88093BC0056
:1004B0008091BC0087FFFCCF4093BB0084E8809311
:1004C000BC008091BC0087FFFCCF84E98093BC0016
:1004D0000895A1E0B0E0EFE6F2E00C94B60A182F20
:1004E000F62EE42E40E060E088E62983C9DF412F44
:1004F00061E088E6C5DF4F2D62E088E6C1DF4E2D62
:1005000064E088E6BDDF2981422F65E088E6B8DF38
:10051000402F66E088E6B4DF2196E6E00C94D20A2C
:10052000982F92959F708F702AE0929F800D1124D2
:1005300008959091BC00946A9093BC009091BC0087
:1005400097FFFCCF982F990F9093BB0094E890935E
:10055000BC009091BC0097FFFCCF6093BB0094E877
:100560009093BC009091BC0097FFFCCF9091BC0091
:10057000946A9093BC009091BC0097FFFCCF880FC9
:1005800081608093BB0084E88093BC008091BC00B4
:1005900087FFFCCF84E88093BC008091BC0087FF7C
:1005A000FCCF8091BB0094E99093BC00B9CF1F921F
:1005B0000F920FB60F9211245C9A0F900FBE0F90FE
:1005C0001F90189583E084BD95E095BD80936E00E3
:1005D00082EE87BD08958C3611F484EF01C082EE5F
:1005E00087BD089510926E005C9808951F920F9237
:1005F0000FB60F9211242F933F934F935F936F93F6
:100600007F938F939F93AF93BF93EF93FF938091CB
:100610009C038F5F80939C035C9816BC80919C0325
:10062000863419F4DFDF10929C03FF91EF91BF91A4
:10063000AF919F918F917F916F915F914F913F917A
:100640002F910F900FBE0F901F90189583E080930D
:100650006E005C9A089584B18C6B84B985B1846115
:1006600085B981E58CBD08952C982B988EBD0DB46D
:1006700007FEFDCF2C9A08952C982B9A8EBD0DB4B1
:1006800007FEFDCF2C9A2B980895A0E0B0E0EAE495
:10069000F3E063C75C01FB0177FD3796EF0183E070
:1006A000D595C7958A95E1F7690180EBC80ED11CF5
:1006B0007A0195E0E90EF11C47018A0C9B1C612C24
:1006C000712C872D90E08C179D0718F5872D8C0DC8
:1006D000CBDF81E2C9DF8E2DC7DF882DC5DF862DF8
:1006E000282F261930E02A153B0584F4552453940D
:1006F000580EF801E80FF11D8081BEDF83EF91E015
:100700000197F1F700C00000852DEACF7394682EA1
:10071000D8CFCDB7DEB7EFE03CC7A0E0B0E0E2E96C
:10072000F3E01EC77C016A01FB0177FD3796EF01FC
:1007300083E0D595C7958A95E1F7590180EBA80E1E
:10074000B11C912CB6016E0D7F1D1FEF160F292DC8
:1007500030E02C173D07D8F4892D8A0D85DF81E222
:1007600083DF8C2D81DF812F7FDF812C882D90E02E
:100770008E159F0554F4802F7FDF83EF91E0019762
:10078000F1F700C000008394F1CF9394E0CFCDB790
:10079000DEB7ECE001C70F9300E020E030E040E07E
:1007A00050E060E470E080E890E0B7DF0F910895DA
:1007B000AAE0B0E0EDEDF3E0CFC64B015C01D12C37
:1007C0002AE0422E512C612C712CEE24E394ED0C86
:1007D00001E010E00C0F1D1F0D0D111DA301920172
:1007E00097D6F8016083B901CA01EFE0F7E23197CB
:1007F000F1F700C00000611571058105910511F048
:10080000DE2CE3CFCD2CF12CE094F0948E2D880FCC
:10081000880F17E3180F00E025E030E08114910401
:10082000A104B10439F445E050E060E170E084E6F1
:1008300090E006C044E050E060E170E088E790E0BE
:100840006CDFA12CB12CE12EF12CDD20E1F0E1E0F8
:10085000F0E0EC0FFD1FED0DF11D0081F0E10F9FA9
:1008600080011124005A1E4FA5014E0D5F1D25E089
:1008700030E060E170E088E090E007DFDA948AE041
:10088000A80EB11CE2CFDD24D394DC0C0981E0E199
:100890000E9F80011124005A1E4FA701FAE0CF9E3F
:1008A000400D511D112425E030E060E170E088E04A
:1008B00090E0EBDEA7018AE0D89E400D511D112487
:1008C00000E012E025E030E060E170E088E090E0D8
:1008D000DCDE2A96E0E15CC6BEDE8EEAC5DE80E2A2
:1008E000C3DE82E0C1DE80EBBFDE88ECBDDE80E0EF
:1008F000BBDE80E1B9DE80E4B7DE81E8B5DE8FE7FC
:10090000B3DE81EAB1DE88EAAFDE8FE3ADDE84EAF2
:10091000ABDE83EDA9DE80E0A7DE85EDA5DE80EF0E
:10092000A3DE89EDA1DE82E29FDE8AED9DDE82E11B
:100930009BDE8BED99DE80E297DE8DE895DE84E12B
:1009400093DE86EA91DE8FEA8FDE25CF0F93CF9379
:10095000DF93C82FD0E00FEC20E030E047E050E01C
:1009600068E070E0CE01D9DE03EF21E030E047E03F
:1009700050E068E070E0CE01D0DEDF91CF910F91C2
:1009800008950F93CF93C82F0FE020E030E040E0B0
:1009900050E068E070E080E890E0BFDECC23E9F052
:1009A00000EF21E030E040E050E068E070E080E8F7
:1009B00090E0B3DE0FE022E030E044E050E068E099
:1009C00070E08AE190E0A9DE22E030E042E650E00B
:1009D00068E070E08AE190E0A0DE0FEF20E030E018
:1009E00040E050E060E470E084E090E096DE20E0DB
:1009F00030E04CE750E060E470E084E090E08DDEB1
:100A000000EF28E030E044E050E068E070E088E784
:100A100090E083DECF910F9108958AB1806E8AB9FC
:100A20008BB1806E8BB90A9A0895129A0895CF936C
:100A3000DF93DA01E1E0F0E0AF0102C0440F551F9F
:100A40008A95E2F7CA01409595E0969FE001979F4D
:100A5000D00D112490E0E0E0F0E0EC17FD0709F183
:100A600060E070E06A177B0759F05BB162177307AB
:100A700010F4542301C0582B5BB96F5F7F4FF2CF46
:100A80002A173B0729F02115310531F0992321F070
:100A90002150310991E003C02F5F3F4F90E0319624
:100AA000DCCFDF91CF9108951F920F920FB60F9276
:100AB00011242F933F934F935F936F937F938F9363
:100AC0009F93AF93BF93CF93EF93FF93C091C600D3
:100AD000C33541F48091A203811111C081E080935C
:100AE000AD030DC0C53459F48091A203882339F0B9
:100AF00061E082E0ADDC1092A2031092AD03809120
:100B0000AD038823A9F0C33599F08091A203E82FA3
:100B1000F0E0EE54FC4FC083C33029F4811103C0D0
:100B200061E080E495DC8091A2038F5F8093A20353
:100B3000FF91EF91CF91BF91AF919F918F917F9155
:100B40006F915F914F913F912F910F900FBE0F903A
:100B50001F9018951F920F920FB60F9211242F938A
:100B60003F934F935F936F937F938F939F93AF9335
:100B7000BF93CF93EF93FF93C091CE00C33541F461
:100B80008091A203811111C081E08093AD030DC05B
:100B9000C53459F48091A203882339F061E082E0E2
:100BA00057DC1092A2031092AD038091AD0388230D
:100BB00061F0C33551F08091A203E82FF0E0EE54CC
:100BC000FC4FC0838F5F8093A20381E090E09093FD
:100BD000BF038093BE03FF91EF91CF91BF91AF917F
:100BE0009F918F917F916F915F914F913F912F9145
:100BF0000F900FBE0F901F9018958091BE0310921A
:100C0000BF031092BE030895E1ECF0E08081886993
:100C10008083E2ECF0E080818660808385E18093D0
:100C2000C400E9ECF0E0808188698083EAECF0E0C0
:100C300080818660808381E88093CC000895A4E160
:100C4000B0E0E4E2F6E096C493E599838A836B838F
:100C5000942FFA0183E0841B382F3E0F2E2F291B7F
:100C6000261748F42191A1E0B0E0AC0FBD1FA30FFF
:100C7000B11D2C93F1CF83E0860FE1E0F0E0EC0FA3
:100C8000FD1FE80FF11D85E4808320E070E06D5FBB
:100C90007F4F822F90E0681779077CF03091C00079
:100CA00035FFFCCFE1E0F0E0EC0FFD1FE80FF91F8E
:100CB00080818093C6002F5FECCF8091C00085FFBC
:100CC000FCCF6496E2E072C4E1E0E80FA82FB0E048
:100CD000AE54BC4F8C9120E833E0D9019A2F921B7F
:100CE000981758F45D9191E09E0FF0E0EE54FC4FA0
:100CF0004081541304C0E92FF1CF81E0089580E0D2
:100D00000895A1E0B0E0E6E8F6E02CC4DD24D39439
:100D1000D80EE82FF0E0EE54FC4FC0801092A703ED
:100D20001092A8031092A9031092AA03A12CB12C2F
:100D300003E010E0EC2CF12C21E0E21AF108EA2D9E
:100D4000ED0DAC14D0F5F0E0EE54FC4F60818FE077
:100D500097E20197F1F700C000008091A7039091FE
:100D6000A803A091A903B091AA03862B8093A7039F
:100D70009093A803A093A903B093AA03C8018A196A
:100D80009B0960DBAE14BF04A4F48091A70390918B
:100D9000A803A091A903B091AA03BA2FA92F982F55
:100DA00088278093A7039093A803A093A903B093E7
:100DB000AA039FEFA91AB90AC2CF90E2E92E93E0E5
:100DC000F92EC12CD12CA601425E5F4F870122E093
:100DD00030E060E170E088E090E057DC2AE0C20E8D
:100DE000D11C80E1E80EF11C9CE3C916D10459F72F
:100DF0006091A7037091A8038091A9039091AA0321
:100E0000D7DC2FEF8AE197EB215080409040E1F74B
:100E100000C000002091AE033091AF034091B003B9
:100E20005091B103A0E7B0E05DD32091A7033091CA
:100E3000A8034091A9035091AA036AD381E02983B2
:100E4000A0DD2981822F82DD80E2E82E82E0F82E6B
:100E5000C12CD12CA601425E5F4F870122E030E019
:100E600060E170E088E090E010DC2AE0C20ED11C66
:100E700080E1E80EF11C9CE3C916D10459F760919A
:100E8000AE037091AF038091B0039091B10390DCF9
:100E900061E088E0DDDA2196EAE080C3A9E0B0E015
:100EA000E3E5F7E061C387E893E10197F1F700C05C
:100EB00000008091B203893009F4FCC090F48430C2
:100EC00009F458C120F4813009F45FC095C1853020
:100ED00009F472C1873009F08FC1B8DB8091B40387
:100EE00070C1813109F4C4C020F4803109F478C1A3
:100EF00083C1823109F417C1873409F07DC1409163
:100F0000B5030091B6038091B70314E6419FA00199
:100F100011246A01EE24D7FCE094FE2C9091B403D6
:100F200024EF31E0929FA001939F500D112466277A
:100F300057FD6095762F4C0D5D1D6E1D7F1D22E3C4
:100F4000029F80011124222717FD2095322F400F88
:100F5000511F621F731F3AE0839FC0011124AA270B
:100F600097FDA095BA2F8A019B01080F191F2A1F10
:100F70003B1FC901B80100939D0310939E0320936A
:100F80009F033093A00314DC37C18091A10387FD38
:100F900033C1EFE4F3EC3197F1F700C0000081E0DA
:100FA00093DE81112DC000E812E025E030E04DE233
:100FB00050E060E170E088E090E067DB00E912E07B
:100FC00025E030E047E350E060E170E088E090E049
:100FD0005CDBFAE200E51EEF20E0F150004010403B
:100FE0002040D9F7000000E025E030E04DE250E07D
:100FF00060E170E08EE190E090DB43E953E035C0C2
:101000006091A103605480E823DA60E880E090E01A
:1010100019DA00EA12E025E030E04DE250E060E14C
:1010200070E088E090E031DB00EB12E025E030E09A
:1010300047E350E060E170E088E090E026DB3AE2D0
:1010400060E58EEF90E03150604080409040D9F7ED
:10105000000000E025E030E04DE250E060E170E0AB
:101060008EE190E05ADB45E953E061E082E0C3C0E5
:1010700092DB80E086DC30E0C32E31E0D32EE12C21
:10108000F12CA701425E5F4F860122E030E060E173
:1010900070E088E090E0F9DAEAE0EE0EF11CF0E1B1
:1010A000CF0ED11C0CE3E016F10459F761E080E1AA
:1010B000CFD9A2C087E090E0C8D98093BC03E12CCF
:1010C000F12C08E08091BC0390E0E816F906D4F416
:1010D0009E012F5F3F4F690110E0812F800F90E04C
:1010E000B4D9F60181936F011F5F1630B1F70A5F23
:1010F000AE014F5F5F4F66E086E0A1DDFFEFEF1AC4
:10110000FF0AE0CF60E087E090E09CD987E090E0C4
:101110009CD98093BC03982F990F890F880F885F03
:101120008093BD0369C080919D0390919E03A0911F
:101130009F03B091A00389879887AF838B2F99274E
:10114000AA27BB2780939D0390939E03A0939F03A0
:10115000B093A003AE01495F5F4F63E082E16FDDB2
:101160002AE030E048EE53E06EE571E087E090E081
:101170005EDC42C03091B303A4EBB3E0FE013196D4
:1011800020E04AE0231761F08D91642FB5D1592FEB
:1011900060E1869FC0011124852B81932F5FF2CFE0
:1011A000098110E02A8130E04B8150E06C8170E0D1
:1011B0008D8190E08ED90FC081E0A3DD47DA809168
:1011C000B50309DA2AE030E048EE53E06EE571E05D
:1011D00086E090E02CDC45E953E061E083E00BC061
:1011E0008091A10384FF03C047E953E002C049E9AD
:1011F00053E061E081E123DD60E082E029D92996B6
:10120000E8E0CEC1ECE7F0E08081816C8083EAE722
:10121000F0E08081846E8083209880E094E0909359
:10122000AC038093AB030895A3E0B0E0E9E1F9E0FB
:1012300091C183EC99E00197F1F700C00000809123
:10124000AB039091AC039C0121523340273C310504
:1012500098F02A563F4F25393105A0F028533F4FCB
:1012600025393105A8F0895C9109873C9105B0F0DA
:10127000C12CD12C760118C06AE0C62ED12CE12CED
:10128000F12C12C052E3C52ED12CE12CF12C0CC054
:1012900044E6C42ED12CE12CF12C06C034EFC32E31
:1012A000DD24D394E12CF12C8FEF8093C600C11480
:1012B000D104E104F10409F404C18090AE039090DC
:1012C000AF03A090B003B090B1038C0C9D1CAE1C7A
:1012D000BF1C8092AE039092AF03A092B003B09275
:1012E000B1038E010C5F1F4F1601270124E0622E0F
:1012F000712CF80122928F01232C342C452C55247B
:10130000682DC3019FD8892C9A2CAB2CBB24FFEFEE
:101310006F1A7F0A27E06216710459F7AE014F5F1A
:101320005F4F63E088E08BDC86E09091A10396FD3F
:101330000BC03FE79AE1E6E031509040E040E1F732
:1013400000C00000815089F78091A10386FD87C00D
:101350006091BC036F5F6093BC0387E090E072D83C
:1013600066E088E6E6D89091BD0321E0290F20933E
:10137000BD03682F892F90E065D887E893E1019736
:10138000F1F700C0000065E088E6D3D89091BD0376
:1013900021E0290F2093BD03682F892F90E052D8B8
:1013A000E7E8F3E13197F1F700C0000064E088E678
:1013B000C0D89091BD0321E0290F2093BD03682F71
:1013C000892F90E03FD887E893E10197F1F700C0BB
:1013D000000062E088E6ADD89091BD0321E0290FBE
:1013E0002093BD03682F892F90E02CD8E7E8F3E124
:1013F0003197F1F700C0000061E088E69AD890913B
:10140000BD0321E0290F2093BD03682F892F90E0B1
:1014100019D887E893E10197F1F700C00000109117
:10142000BD0381E0810F8093BD03C701B6012AE0AF
:1014300030E040E050E06CD0622F812F90E002D885
:1014400061E080E205D86091A10380E090E00E9415
:101450002202E7E8F3E13197F1F700C00000809144
:10146000A10384FD2EC0E1DA8091A10383FF17C0A0
:101470002091AE033091AF034091B0035091B1037E
:10148000A0E7B0E02FD02091A7033091A8034091AE
:10149000A9035091AA033CD0822F90E057DA6091C3
:1014A000AE037091AF038091B0039091B10380D9E6
:1014B0002AE030E048EE53E06EE571E085E090E030
:1014C000B6DA60E081E00E94280260E080E40E94D9
:1014D000280287E893E10197F1F700C00000239606
:1014E000E2E154C06ED0A59F900DB49F900DA49FD3
:1014F000800D911D11240895991B79E004C0991F56
:10150000961708F0961B881F7A95C9F7809508955D
:10151000A1E21A2EAA1BBB1BFD010DC0AA1FBB1FF7
:10152000EE1FFF1FA217B307E407F50720F0A21B69
:10153000B30BE40BF50B661F771F881F991F1A94D6
:1015400069F760957095809590959B01AC01BD0100
:10155000CF0108952F923F924F925F926F927F92A8
:101560008F929F92AF92BF92CF92DF92EF92FF92B3
:101570000F931F93CF93DF93CDB7DEB7CA1BDB0B5F
:101580000FB6F894DEBF0FBECDBF09942A88398804
:1015900048885F846E847D848C849B84AA84B9840B
:1015A000C884DF80EE80FD800C811B81AA81B98117
:1015B000CE0FD11D0FB6F894DEBF0FBECDBFED012B
:1015C0000895A29FB001B39FC001A39F700D811D1C
:1015D0001124911DB29F700D811D1124911D08953C
:1015E000F999FECF92BD81BDF89A992780B50895EB
:1015F000262FF999FECF1FBA92BD81BD20BD0FB62F
:10160000F894FA9AF99A0FBE01960895F894FFCFCC
:10161000FFFFFF0707070707FFFFFFE0E0E0E0E04D
:101620000303FFFFC0FF00FF0000FFFF01FF00FFFB
:101630007EFFE7FF7E00FFFFF8F8D8D8D8D8FBFB85
:1016400000FFFFFF0000FFFFFFFF01FFFF00FFFFA4
:10165000E3FFFFE300FFFF301B18181B18FBFB0024
:101660000707070707FFFFFFE0E0E0E0E0FFFFFFFD
:10167000FEFFFF1F1FFFFFFE7FFFFFF8F8FFFF7F4A
:101680000000FFFFFFFF00000000FFFFFFFF000062
:10169000CFCFCFCFFFFFFFFFFFFFFFFFF3F3F3F34A
:1016A000CFCFCFCFFFFFFFFFF3F3F3F3FFFFFFFF3A
:1016B000FFFFFF00FFFFFF0007070707FFFFFF0710
:1016C000FFFFFFFFCFCFCFCFF3F3F3F3FFFFFFFF1A
:1016D000FFFFFFFFC0C0C0C0FFFFFFE1E1FFFFFF52
:1016E0000F0F0F0FFFFFFFFF00000000FFFFFFFFC6
:1016F000FEFFFFC7C7FFFFFE7FFFFFE3E3FFFF7FA4
:10170000FFFFFFC7C7FFFFFF0101010101FFFFFF4F
:101710007EE7E77E0030FFFFE6EECECEC6C0CFCF3D
:1017200000007C7C7C7C000000003E3E3E3E0000D1
:10173000FFFFFF0707070707FFFFFFE0E0E0E0E02C
:1017400003FFFFFF03C0FFFF303F0F3F30017F7FEC
:1017500066667E3F3F7E66661B1B1B1F1F1BFBFBD7
:10176000C3C3C3C3C3C3DFDFFCFCCCCCCCCCFCFC09
:101770007EE7E77E00FF18FF060606060606FEFE69
:101780000707070707FFFFFFE0E0E0E0E0FFFFFFDC
:101790007C7F077F7C007F7FFBFBDBDBDBDBDFDF2E
:1017A0001EFE1EFE1EFFE0FF787F787F78FF07FF9A
:1017B000F8FF07FFF870FFFF3179FCCDCDFC7931E0
:1017C0008383FBFB8383BFBF3179FDCDCDFD7931B1
:1017D000FFFFFF0707070707FFFFFFE0E0E0E0E08C
:1017E00007FFFF07F0FF00FFFE1F1FFE01FF00FFC6
:1017F000333F3F33333F3F33FBFBFBDFDFFBFBFB81
:101800003F3F33333333333373FBFBDBDBFBFB73A0
:10181000FBFBDBDBDBDBDFDF363636373736F6F676
:101820000707070707FFFFFFE0E0E0E0E0FFFFFF3B
:10183000FFFFFF0707070707FFFFFFE0E0E0E0E02B
:101840003F3F33B3B3333F3F1B1B1B1B1B1BFBFB38
:10185000C7FFFFC7C7FFFFC7E1FDFDE1E1FDFDE1F8
:10186000C3C3C3C3C3C3DFDFFCFCCCCCCCCCFCFC08
:101870007EE7E77E00FF18FF060606060606FEFE68
:101880000707070707FFFFFFE0E0E0E0E0FFFFFFDB
:101890003132333431323334313233343132333420
:0C18A0000064006600730079006E000018
:00000001FF
