:100000003DC0000057C0000055C0000053C00000B4
:1000100051C000004FC000004DC000004BC00000A8
:1000200049C0000047C0000045C0000043C00000B8
:1000300041C000003FC000003DC000003BC00000C8
:100040004FC2000037C000006CC2000033C0000087
:1000500002C500002FC000002DC000002BC0000012
:1000600029C0000027C0000025C0000023C00000F8
:1000700048C500001FC000001DC0000011241FBEA5
:10008000CFEFD8E0DEBFCDBF13E0A0E0B1E0E6E403
:10009000F4E102C005900D92AC33B107D9F713E03B
:1000A000ACE3B3E001C01D92AE35B107E1F703D078
:1000B0000C94210AA5CFA0E0B0E0E1E6F0E00C94BA
:1000C000CF092FE784E89EE1215080409040E1F77E
:1000D00000C00000F1D362D5C5D78FD464D10BD254
:1000E000F5D0789408982B9813B810B880E039D4DC
:1000F00041E353E061E082E06CD58091410387FFEA
:1001000009C081E02ED430E2E32E32E0F32EC0E0CD
:10011000D0E028C020ECE22E22E0F22EC0E0D0E0B9
:10012000AE01425E5F4F870122E030E060E170E0A7
:1001300088E090E05ED22A9620E1E20EF11CCC33FA
:10014000D10571F78091410387FDDBCF8FE097E206
:100150000197F1F700C000008091410381FFF2CFC9
:10016000ECD5F0CFAE01425E5F4F870122E030E078
:1001700060E170E088E090E03CD22A9690E1E90EE0
:10018000F11CCC33D10571F760914E0370914F0390
:100190008091500390915103F3D220914E033091FE
:1001A0004F034091500350915103A0E7B0E00E94EB
:1001B0008D092091470330914803409149035091A4
:1001C0004A030E94A309822FB1D3C12C94E0D92EF7
:1001D0008091410380FF06C057D7D0924C03C09254
:1001E0004B03F6CF81FF02C0A8D5F2CF189936C0D5
:1001F00022E42A95F1F700C020917800309179002F
:1002000080914B0390914C032817390748F4809153
:1002100078009091790090934C0380934B0304C035
:1002200086E08A95F1F700C092E49A95F1F700C054
:10023000189B0FC022E42A95F1F700C080914B0370
:1002400090914C03883E934098F661E081E0A0D005
:10025000BFCF86E08A95F1F700C0CACF84FFB8CF40
:100260000099B6CF00E022E030E045E050E06CE2DB
:1002700070E087E790E046D280E2E82E82E0F82E38
:10028000C0E0D0E0AE01425E5F4F870122E030E087
:1002900060E170E088E090E0ACD12A9690E1E90E50
:1002A000F11CCC33D10571F760914E0370914F036F
:1002B000809150039091510363D260E080E168D057
:1002C00043E353E061E083E184D482CFCF93DF93B3
:1002D00080E090E00E940B0A8093410387E090E069
:1002E0000E940B0A80935C03982F990F890F880F47
:1002F000885F80935D03C3E0D0E0CE010E940B0ACB
:1003000040914703509148036091490370914A031B
:10031000482B4093470350934803609349037093DD
:100320004A038FE097E20197F1F700C00000C13067
:10033000A1F08091470390914803A0914903B091A7
:100340004A03BA2FA92F982F8827809347039093A9
:100350004803A0934903B0934A03219771F660E0E4
:10036000CE010E94130A87E893E10197F1F700C0DC
:1003700000002196CA30D10591F710924103DF9118
:10038000CF9108950C94130A08950C940B0A0895C4
:1003900090914103662311F0892B02C08095892337
:1003A000809341030895ECEBF0E0808184608083CA
:1003B0001092B900E8EBF0E08081826180830895BB
:1003C0009091BC00946A9093BC009091BC0097FF00
:1003D000FCCF880F8093BB0084E88093BC008091A1
:1003E000BC0087FFFCCF6093BB0084E88093BC0017
:1003F0008091BC0087FFFCCF4093BB0084E88093D2
:10040000BC008091BC0087FFFCCF84E98093BC00D6
:100410000895A1E0B0E0EEE0F2E0C4C7162FF42E9C
:10042000482F61E088E62983CBDF412F62E088E630
:10043000C7DF4F2D64E088E6C3DF2981422F65E0E6
:1004400088E6BEDF402F66E088E6BADF2196E5E069
:10045000C5C7982F92959F708F702AE0929F800D4C
:10046000112408959091BC00946A9093BC009091DF
:10047000BC0097FFFCCF982F990F9093BB0094E896
:100480009093BC009091BC0097FFFCCF6093BB00A1
:1004900094E89093BC009091BC0097FFFCCF9091A2
:1004A000BC00946A9093BC009091BC0097FFFCCF75
:1004B000880F81608093BB0084E88093BC008091AA
:1004C000BC0087FFFCCF84E88093BC008091BC0017
:1004D00087FFFCCF8091BB0094E99093BC00B9CF1B
:1004E0001F920F920FB60F9211245E9A0F900FBEBB
:1004F0000F901F90189583E084BD95E095BD809383
:100500006E0082EE87BD08958C3611F484EF01C031
:1005100082EE87BD089510926E008BB18F738BB9F8
:1005200008951F920F920FB60F9211242F933F93AD
:100530004F935F936F937F938F939F93AF93BF93EB
:10054000EF93FF9380913C038F5F80933C038BB1CB
:100550008F738BB916BC80913C03823319F4DBDFB7
:1005600010923C03FF91EF91BF91AF919F918F91BA
:100570007F916F915F914F913F912F910F900FBE9F
:100580000F901F90189583E080936E005E9A0895F7
:1005900084B18C6B84B985B1846185B981E58CBDEA
:1005A00008952C982B988EBD0DB407FEFDCF2C9A84
:1005B00008952C982B9A8EBD0DB407FEFDCF2C9A72
:1005C0002B980895CF93DF93C0EB8C2FEADFD0E018
:1005D00080E0EFDF83EF91E00197F1F700C00000CA
:1005E000DF5FD038A9F7CF5FC83B79F7DF91CF91B4
:1005F0000895A0E0B0E0EEEFF2E0CAC65C01FB01B6
:1006000077FD3796EF0183E0D595C7958A95E1F799
:10061000690180EBC80ED11C7A0195E0E90EF11C4E
:1006200047018A0C9B1C612C712C872D90E08C1744
:100630009D0718F5872D8C0DB4DF81E2B2DF8E2D7A
:10064000B0DF882DAEDF862D282F261930E02A1541
:100650003B0584F455245394580EF801E80FF11D1E
:100660008081A7DF83EF91E00197F1F700C00000E0
:10067000852DEACF7394682ED8CFCDB7DEB7EFE0E3
:10068000A3C6A0E0B0E0E6E4F3E086C65C01FB01AF
:1006900077FD3796EF0183E0D595C7958A95E1F709
:1006A000690180EBC80ED11C7A0195E0E90EF11CBE
:1006B000C7018A0D9B1D10E00FEF080F812F90E0FE
:1006C0008C179D07D8F4812F8C0D6BDF81E269DFD9
:1006D0008E2D67DF802F65DF912C892D90E08A15A4
:1006E0009B0554F480E065DF83EF91E00197F1F71B
:1006F00000C000009394F1CF1F5FE0CFCDB7DEB70D
:10070000EBE066C6A0E0B0E0E7E8F3E044C67C01B9
:100710006A01FB0177FD3796EF0183E0D595C79518
:100720008A95E1F7590180EBA80EB11C912CB60116
:100730006E0D7F1D1FEF160F292D30E02C173D0782
:10074000D8F4892D8A0D2DDF81E22BDF8C2D29DF56
:10075000812F27DF812C882D90E08E159F0554F482
:10076000802F27DF83EF91E00197F1F700C00000B1
:100770008394F1CF9394E0CFCDB7DEB7ECE027C6FA
:10078000AAE0B0E0E5ECF3E002C64B015C01D12C3D
:10079000FAE04F2E512C612C712CFF24F394FD0CA8
:1007A00001E010E00C0F1D1F0D0D111DA3019201A2
:1007B000CAD5F8016083B901CA01EFE0F7E23197C9
:1007C000F1F700C00000611571058105910511F078
:1007D000DF2CE3CFCD2C8F2D90E07C01E094F094C2
:1007E0002E2D220F220F47E3420FE42EF12C81140D
:1007F0009104A104B10459F400E025E030E045E0A3
:1008000050E060E170E084E690E07CDF0CC001968F
:1008100025E030E0A70160E170E0E3E0880F991F78
:10082000EA95E1F72EDFA12CB12CDD20E1F0E1E02B
:10083000F0E0EC0FFD1FED0DF11D0081F0E10F9FC9
:1008400080011124005A1E4FA5014E0D5F1D25E0A9
:1008500030E060E170E088E090E0CBDEDA948AE09E
:10086000A80EB11CE2CFDD24D394DC0C0981E0E1B9
:100870000E9F80011124005A1E4FA701FAE0CF9E5F
:10088000400D511D112425E030E060E170E088E06A
:1008900090E0AFDEA7018AE0D89E400D511D1124E3
:1008A00000E012E025E030E060E170E088E090E0F8
:1008B000A0DE2A96E0E187C56BDE8EEA72DE80E27A
:1008C00070DE82E06EDE80EB6CDE88EC6ADE80E05B
:1008D00068DE80E166DE80E464DE81E862DE8FE768
:1008E00060DE81EA5EDE88EA5CDE8FE35ADE84EA5F
:1008F00058DE83ED56DE80E054DE85ED52DE80EF7B
:1009000050DE89ED4EDE82E24CDE8AED4ADE82E187
:1009100048DE8BED46DE80E244DE8DE842DE84E197
:1009200040DE86EA3EDE8FEA3CDE4CCE0F93CF936C
:10093000DF93C82FD0E00FEC20E030E047E050E03C
:1009400068E070E0CE01DEDE03EF21E030E047E05A
:1009500050E068E070E0CE01D5DEDF91CF910F91DD
:1009600008950F93CF93C82F0FE020E030E040E0D0
:1009700050E068E070E080E890E0C4DECC23E9F06D
:1009800000EF21E030E040E050E068E070E080E817
:1009900090E0B8DE0FE022E030E044E050E068E0B4
:1009A00070E08AE190E0AEDE22E030E042E650E026
:1009B00068E070E08AE190E0A5DE0FEF20E030E033
:1009C00040E050E060E470E084E090E09BDE20E0F6
:1009D00030E04CE750E060E470E084E090E092DECC
:1009E00000EF28E030E044E050E068E070E088E7A5
:1009F00090E088DECF910F910895579A089525E0F1
:100A0000289FD001299FB00D112490E0E0E0F0E094
:100A1000EA17FB07F9F020E030E02617370749F026
:100A20002417350710F45F9A01C05F982F5F3F4F7E
:100A3000F4CF4617570729F04115510531F0992396
:100A400021F04150510991E003C04F5F5F4F90E0AA
:100A50003196DECF08951F920F920FB60F92112498
:100A60002F933F934F935F936F937F938F939F93B6
:100A7000AF93BF93CF93EF93FF93C091C600C3355D
:100A800041F480914203811111C081E080934D03B4
:100A90000DC0C53459F480914203882339F061E0D8
:100AA00082E076DC1092420310924D0380914D0358
:100AB0008823A9F0C33599F080914203E82FF0E034
:100AC000EE5AFC4FC083C33029F4811103C061E0AA
:100AD00080E45EDC809142038F5F80934203FF914C
:100AE000EF91CF91BF91AF919F918F917F916F9136
:100AF0005F914F913F912F910F900FBE0F901F90DC
:100B000018951F920F920FB60F9211242F933F93B7
:100B10004F935F936F937F938F939F93AF93BF9305
:100B2000CF93EF93FF93C091CE00C33541F48091F2
:100B30004203811111C081E080934D030DC0C53483
:100B400059F480914203882339F061E082E020DC8F
:100B50001092420310924D0380914D03882361F05F
:100B6000C33551F080914203E82FF0E0EE5AFC4F7C
:100B7000C0838F5F80934203FF91EF91CF91BF912C
:100B8000AF919F918F917F916F915F914F913F9125
:100B90002F910F900FBE0F901F901895E1ECF0E091
:100BA000808188698083E2ECF0E0808186608083C8
:100BB00085E18093C400E9ECF0E08081886980835E
:100BC000EAECF0E080818660808381E88093CC004D
:100BD0000895A4E1B0E0EEEEF5E0E7C393E5998374
:100BE0008A836B83942FFA0183E0841B382F3E0F96
:100BF0002E2F291B261748F42191A1E0B0E0AC0F5D
:100C0000BD1FA30FB11D2C93F1CF83E0860FE1E050
:100C1000F0E0EC0FFD1FE80FF11D85E4808320E07C
:100C200070E06D5F7F4F822F90E0681779077CF04E
:100C30003091C00035FFFCCFE1E0F0E0EC0FFD1F8C
:100C4000E80FF91F80818093C6002F5FECCF649678
:100C5000E2E0C7C3E1E0E80FA82FB0E0AE5ABC4F16
:100C60008C9120E233E0D9019A2F921B981758F407
:100C70005D9191E09E0FF0E0EE5AFC4F40815413DD
:100C800004C0E92FF1CF81E0089580E00895A0E04D
:100C9000B0E0ECE4F6E083C3DD24D394D80EE82F73
:100CA000F0E0EE5AFC4FC080C0E0D0E033E0E32E2D
:100CB000F12C0C2D10E001501109EC2FED0DCC158D
:100CC000C0F5F0E0EE5AFC4F60818FE097E20197AB
:100CD000F1F700C000008091470390914803A09174
:100CE0004903B0914A03862B8093470390934803AE
:100CF000A0934903B0934A03C7018C1B9D0B42DBB1
:100D0000C017D107A4F48091470390914803A091A4
:100D10004903B0914A03BA2FA92F982F88278093AF
:100D2000470390934803A0934903B0934A03219645
:100D3000C4CFCDB7DEB7E8E04EC3A9E0B0E0E2EA49
:100D4000F6E02DC380915203893009F4F6C090F487
:100D5000843009F448C120F4813009F45FC07CC1BB
:100D6000853009F466C1873009F076C10CDC8091CA
:100D7000540364C1813109F4B7C020F4803109F40F
:100D80005FC16AC1823109F411C1873409F064C1BD
:100D900040915503009156038091570324E6429FEA
:100DA000A00111246A01EE24D7FCE094FE2C90915E
:100DB000540324EF31E0929FA001939F500D112422
:100DC000662757FD6095762F4C0D5D1D6E1D7F1DAE
:100DD00032E3039F80011124222717FD2095322F33
:100DE000400F511F621F731FEAE08E9FC001112444
:100DF000AA2797FDA095BA2F8A019B01080F191FFA
:100E00002A1F3B1FC901B80100933D0310933E0305
:100E100020933F0330934003B3DC1EC18091410314
:100E200087FD1AC181E016DF882371F141E353E0A9
:100E300061E082E0CEDE60914103605480E8A8DA90
:100E400060E880E090E09EDA00EA12E025E030E021
:100E50004DE250E060E170E088E090E0CADB00EB3A
:100E600012E025E030E047E350E060E170E088E028
:100E700090E0BFDB0AE210E52EEF30E001501040B9
:100E800020403040D9F724C045E353E061E082E0E0
:100E9000A0DE00E812E025E030E04DE250E060E145
:100EA00070E088E090E0A5DB00E912E025E030E0AA
:100EB00047E350E060E170E088E090E09ADB6AE2AE
:100EC00080E59EEFE0E0615080409040E040D9F73F
:100ED000000000E025E030E04DE250E060E170E02D
:100EE0008EE190E00FDCB8C000E022E030E045E0A9
:100EF00050E06CE270E087E790E004DC30E0C32E65
:100F000031E0D32EE12CF12CA701425E5F4F860128
:100F100022E030E060E170E088E090E06ADBFAE037
:100F2000EF0EF11C00E1C00ED11C1CE3E116F10430
:100F300059F761E080E12CDA8FC087E090E025DA94
:100F400080935C03E12CF12C08E080915C0390E03D
:100F5000E816F906D4F49E012F5F3F4F690110E0B7
:100F6000812F800F90E011DAF60181936F011F5FEE
:100F70001630B1F70A5FAE014F5F5F4F66E086E063
:100F800028DEFFEFEF1AFF0AE0CF60E087E090E095
:100F9000F9D987E090E0F9D980935C03982F990FF5
:100FA000890F880F885F80935D0356C080913D0351
:100FB00090913E03A0913F03B091400389879887A9
:100FC000AF838B2F9927AA27BB2780933D0390934C
:100FD0003E03A0933F03B0934003AE01495F5F4FD0
:100FE00063E088E038C030915303A4E5B3E0FE012C
:100FF000319620E04AE0231761F08D91642F97D15C
:10100000592F60E1869FC0011124852B81932F5FAA
:10101000F2CF098110E02A8130E04B8150E06C81F1
:1010200070E08D8190E0F5D941E353E061E083E029
:1010300012C081E02CDEA7DA8091550365DAF4CF87
:101040008091410384FF03C047E353E002C049E3BA
:1010500053E061E081E1BDDD60E082E099D929964D
:10106000E8E0B9C1ECE7F0E08081816C8083EAE7D9
:10107000F0E08081846E8083209880E094E09093FB
:101080004C0380934B030895A3E0B0E0E9E4F8E05B
:101090007CC183EC99E00197F1F700C000008091DA
:1010A0004B0390914C039C0121523340273C310566
:1010B00098F02A563F4F2539310508F40EC12853C0
:1010C0003F4F2539310508F40EC1895C9109873CF1
:1010D000910508F40EC1F2C04AE0C42ED12CE12CD7
:1010E000F12C80904E0390904F03A0905003B0904D
:1010F00051038C0C9D1CAE1CBF1C80924E03909221
:101100004F03A0925003B09251038E010C5F1F4F0A
:101110001601270184E0682E712CF80122928F01BC
:10112000232C342C452C5524682DC3012BD9892C14
:101130009A2CAB2CBB24FFEF6F1A7F0A27E06216B4
:10114000710459F7AE014F5F5F4F63E088E041DD06
:1011500086E09091410396FFD3C08091410386FDC4
:1011600086C060915C036F5F60935C0387E090E0F2
:1011700009D966E088E676D990915D0321E0290FD0
:1011800020935D03682F892F90E0FCD887E893E1D6
:101190000197F1F700C0000065E088E663D99091FF
:1011A0005D0321E0290F20935D03682F892F90E0D4
:1011B000E9D8E7E8F3E13197F1F700C0000064E017
:1011C00088E650D990915D0321E0290F20935D03BB
:1011D000682F892F90E0D6D887E893E10197F1F73F
:1011E00000C0000062E088E63DD990915D0321E0F7
:1011F000290F20935D03682F892F90E0C3D8E7E87B
:10120000F3E13197F1F700C0000061E088E62AD9E8
:1012100090915D0321E0290F20935D03682F892FB2
:1012200090E0B0D887E893E10197F1F700C00000A3
:1012300010915D0381E0810F80935D03C701B601CA
:101240002AE030E040E050E07ED0622F812F90E035
:1012500099D861E080E29CD86091410380E090E001
:1012600091D8E7E8F3E13197F1F700C00000209151
:101270004E0330914F034091500350915103A0E72A
:10128000B0E04BD02091470330914803409149038F
:1012900050914A0358D0822F90E048DB60914E0372
:1012A00070914F03809150039091510369DA4AE0A5
:1012B00050E068EE73E08EE591E0A1DB60E081E054
:1012C00067D860E080E464D887E893E10197F1F79C
:1012D00000C000002396E2E174C032E3C32ED12C9B
:1012E000E12CF12CFECE24E6C22ED12CE12CF12CE7
:1012F000F8CE94EFC92EDD24D394E12CF12CF1CE5D
:101300003FE39DE0E3E031509040E040E1F700C072
:101310000000815009F01DCF20CF6ED0A59F900D09
:10132000B49F900DA49F800D911D11240895991BC9
:1013300079E004C0991F961708F0961B881F7A95CC
:10134000C9F780950895A1E21A2EAA1BBB1BFD01C7
:101350000DC0AA1FBB1FEE1FFF1FA217B307E40794
:10136000F50720F0A21BB30BE40BF50B661F771FEC
:10137000881F991F1A9469F76095709580959095CC
:101380009B01AC01BD01CF0108952F923F924F9276
:101390005F926F927F928F929F92AF92BF92CF9205
:1013A000DF92EF92FF920F931F93CF93DF93CDB70E
:1013B000DEB7CA1BDB0B0FB6F894DEBF0FBECDBF86
:1013C00009942A88398848885F846E847D848C8457
:1013D0009B84AA84B984C884DF80EE80FD800C8160
:1013E0001B81AA81B981CE0FD11D0FB6F894DEBF43
:1013F0000FBECDBFED010895A29FB001B39FC00104
:10140000A39F700D811D1124911DB29F700D811D30
:101410001124911D0895F999FECF92BD81BDF89ACE
:10142000992780B50895262FF999FECF1FBA92BD4E
:1014300081BD20BD0FB6F894FA9AF99A0FBE0196B5
:061440000895F894FFCFAF
:10144600FFFFFF0707070707FFFFFFE0E0E0E0E019
:101456000303FFFFC0FF00FF0000FFFF01FF00FFC7
:101466007EFFE7FF7E00FFFFF8F8D8D8D8D8FBFB51
:1014760000FFFFFF0000FFFFFFFF01FFFF00FFFF70
:10148600E3FFFFE300FFFF301B18181B18FBFB00F0
:101496000707070707FFFFFFE0E0E0E0E0FFFFFFC9
:1014A600FEFFFF1F1FFFFFFE7FFFFFF8F8FFFF7F16
:1014B6000000FFFFFFFF00000000FFFFFFFF00002E
:1014C600CFCFCFCFFFFFFFFFFFFFFFFFF3F3F3F316
:1014D600CFCFCFCFFFFFFFFFF3F3F3F3FFFFFFFF06
:1014E600FFFFFF00FFFFFF0007070707FFFFFF07DC
:1014F600FFFFFFFFCFCFCFCFF3F3F3F3FFFFFFFFE6
:10150600FFFFFFFFC0C0C0C0FFFFFFE1E1FFFFFF1D
:101516000F0F0F0FFFFFFFFF00000000FFFFFFFF91
:10152600FEFFFFC7C7FFFFFE7FFFFFE3E3FFFF7F6F
:10153600FFFFFFC7C7FFFFFF0101010101FFFFFF1B
:101546007EE7E77E0030FFFFE6EECECEC6C0CFCF09
:1015560000007C7C7C7C000000003E3E3E3E00009D
:10156600FFFFFF0707070707FFFFFFE0E0E0E0E0F8
:1015760003FFFFFF03C0FFFF303F0F3F30017F7FB8
:1015860066667E3F3F7E66661B1B1B1F1F1BFBFBA3
:10159600C3C3C3C3C3C3DFDFFCFCCCCCCCCCFCFCD5
:1015A6007EE7E77E00FF18FF060606060606FEFE35
:1015B6000707070707FFFFFFE0E0E0E0E0FFFFFFA8
:1015C6007C7F077F7C007F7FFBFBDBDBDBDBDFDFFA
:1015D6001EFE1EFE1EFFE0FF787F787F78FF07FF66
:1015E600F8FF07FFF870FFFF3179FCCDCDFC7931AC
:1015F6008383FBFB8383BFBF3179FDCDCDFD79317D
:10160600FFFFFF0707070707FFFFFFE0E0E0E0E057
:1016160007FFFF07F0FF00FFFE1F1FFE01FF00FF91
:10162600333F3F33333F3F33FBFBFBDFDFFBFBFB4C
:101636003F3F33333333333373FBFBDBDBFBFB736C
:10164600FBFBDBDBDBDBDFDF363636373736F6F642
:101656000707070707FFFFFFE0E0E0E0E0FFFFFF07
:10166600313233343132333431323334313233344C
:0C1676000073006400660079006E000044
:00000001FF
