:100000003DC0000057C0000055C0000053C00000B4
:1000100051C000004FC000004DC000004BC00000A8
:1000200049C0000047C0000045C0000043C00000B8
:1000300041C000003FC000003DC00000F0C400000F
:10004000B6C2000037C00000D1C2000033C00000BB
:100050005BC500002FC000002DC000002BC00000B9
:1000600029C0000027C0000025C0000023C00000F8
:10007000A1C500001FC000001DC0000011241FBE4C
:10008000CFEFD8E0DEBFCDBF13E0A0E0B1E0EEE7F8
:10009000F6E102C005900D92AC3CB107D9F713E030
:1000A000ACECB3E001C01D92A13FB107E1F703D072
:1000B0000C943D0BA5CFA0E0B0E0E1E6F0E00C949D
:1000C000EA0A2FE784E89EE1215080409040E1F762
:1000D00000C0000003D4C8D50E943D09BCD4C3D1E0
:1000E00071D21ED1789408982B9813B810B880E07C
:1000F0004AD48091D20387FF07C040E2E42E42E059
:10010000F42EC0E0D0E028C030EFE32E32E0F32E32
:10011000C0E0D0E0AE01425E5F4F870122E030E0F8
:1001200060E170E088E090E0B2D22A9620E1E20E31
:10013000F11CCC33D10571F78091D20387FDDDCF5F
:100140008FE097E20197F1F700C000008091D203A1
:1001500081FFF2CFD3D6F0CFAE01425E5F4F870171
:1001600022E030E060E170E088E090E090D22A96F2
:1001700090E1E90EF11CCC33D10571F76091DF03FA
:100180007091E0038091E1039091E20313D3809199
:10019000D20383FF1AC081E0F6D32091DF033091B0
:1001A000E0034091E1035091E203A0E7B0E00E9438
:1001B000A90A2091D8033091D9034091DA035091D4
:1001C000DB030E94BF0A822FC3D393E6B92EC12C52
:1001D00024E0D22E8091D20380FF07C00E944F09F5
:1001E000D092DD03C092DC03F5CF81FF02C086D63A
:1001F000F1CF189932C022E42A95F1F700C020917E
:100200007800309179008091DC039091DD0328170C
:10021000390748F480917800909179009093DD033C
:100220008093DC0304C086E08A95F1F700C0189B38
:100230000FC092E49A95F1F700C08091DC03909191
:10024000DD03883E934030F661E081E001D1C2CF0A
:1002500086E08A95F1F700C0CECF84FFBBCFB09285
:10026000CE008091C80085FFFCCF87EA91E6019718
:10027000F1F700C00000F1D48111ACCF00E022E022
:1002800030E045E050E06CE270E087E790E047D274
:100290008091D20383FF1AC081E075D32091DF03E0
:1002A0003091E0034091E1035091E203A0E7B0E018
:1002B0000E94A90A2091D8033091D9034091DA0312
:1002C0005091DB030E94BF0A822F42D380E2E82EC6
:1002D00082E0F82EC0E0D0E0AE01425E5F4F8701C1
:1002E00022E030E060E170E088E090E0D0D12A9632
:1002F00090E1E90EF11CCC33D10571F76091DF0379
:100300007091E0038091E1039091E20353D260E0A9
:1003100080E19ED041EC53E061E083E1C0D45ACF4C
:10032000CF93DF9380E090E00E94270B8093D2036D
:1003300087E090E00E94270B8093ED03982F990FA0
:10034000890F880F885F8093EE03C3E0D0E0CE0171
:100350000E94270B4091D8035091D9036091DA0392
:100360007091DB03482B4093D8035093D9036093DB
:10037000DA037093DB038FE097E20197F1F700C097
:100380000000C130A1F08091D8039091D903A091D1
:10039000DA03B091DB03BA2FA92F982F8827809317
:1003A000D8039093D903A093DA03B093DB0321978A
:1003B00071F68091D2038F3F81F460E0CE010E94FC
:1003C0002F0BE7E8F3E13197F1F700C00000219629
:1003D000CA30D10591F71092D2038091D20387FFE2
:1003E0002EC0C6E0D0E0CE010E94270BE7E8F3E183
:1003F0003197F1F700C000004091DF035091E00316
:100400006091E1037091E203482B2197C330D1053D
:1004100049F44093DF035093E0036093E10370934A
:10042000E2030DC0762F652F542F44274093DF033E
:100430005093E0036093E1037093E203D4CFDF9124
:10044000CF9108950C942F0B08950C94270B0895C9
:100450009091D203662311F0892B02C080958923E5
:100460008093D2030895ECEBF0E080818460808378
:100470001092B900E8EBF0E08081826180830895FA
:100480009091BC00946A9093BC009091BC0097FF3F
:10049000FCCF880F8093BB0084E88093BC008091E0
:1004A000BC0087FFFCCF6093BB0084E88093BC0056
:1004B0008091BC0087FFFCCF4093BB0084E8809311
:1004C000BC008091BC0087FFFCCF84E98093BC0016
:1004D0000895A1E0B0E0EFE6F2E00C94ED0A182FE9
:1004E000F62EE42E40E060E088E62983C9DF412F44
:1004F00061E088E6C5DF4F2D62E088E6C1DF4E2D62
:1005000064E088E6BDDF2981422F65E088E6B8DF38
:10051000402F66E088E6B4DF2196E6E00C94090BF4
:10052000982F92959F708F702AE0929F800D1124D2
:1005300008959091BC00946A9093BC009091BC0087
:1005400097FFFCCF982F990F9093BB0094E890935E
:10055000BC009091BC0097FFFCCF6093BB0094E877
:100560009093BC009091BC0097FFFCCF9091BC0091
:10057000946A9093BC009091BC0097FFFCCF880FC9
:1005800081608093BB0084E88093BC008091BC00B4
:1005900087FFFCCF84E88093BC008091BC0087FF7C
:1005A000FCCF8091BB0094E99093BC00B9CF1F921F
:1005B0000F920FB60F9211245C9A0F900FBE0F90FE
:1005C0001F90189583E084BD95E095BD80936E00E3
:1005D00082EE87BD08958C3611F484EF01C082EE5F
:1005E00087BD089510926E005C9808951F920F9237
:1005F0000FB60F9211242F933F934F935F936F93F6
:100600007F938F939F93AF93BF93EF93FF938091CB
:10061000CC038F5F8093CC035C9816BC8091CC0395
:10062000863419F4DFDF1092CC03FF91EF91BF9174
:10063000AF919F918F917F916F915F914F913F917A
:100640002F910F900FBE0F901F901895EEE6F0E0DF
:100650008081836080835C9A089584B18C6B84B9B7
:1006600085B1846185B981E58CBD08952C982B985E
:100670008EBD0DB407FEFDCF2C9A08952C982B9AB1
:100680008EBD0DB407FEFDCF2C9A2B980895A0E0E7
:10069000B0E0ECE4F3E098C75C01FB0177FD37962E
:1006A000EF0183E0D595C7958A95E1F7690180EB65
:1006B000C80ED11C7A0195E0E90EF11C47018A0CA5
:1006C0009B1C612C712C872D90E08C179D0718F5D1
:1006D000872D8C0DCBDF81E2C9DF8E2DC7DF882D02
:1006E000C5DF862D282F261930E02A153B0584F416
:1006F00055245394580EF801E80FF11D8081BEDF98
:1007000083EF91E00197F1F700C00000852DEACF5B
:100710007394682ED8CFCDB7DEB7EFE071C7A0E0F5
:10072000B0E0E4E9F3E053C77C016A01FB0177FD27
:100730003796EF0183E0D595C7958A95E1F7590182
:1007400080EBA80EB11C912CB6016E0D7F1D1FEF22
:10075000160F292D30E02C173D07D8F4892D8A0D6E
:1007600085DF81E283DF8C2D81DF812F7FDF812C8C
:10077000882D90E08E159F0554F4802F7FDF83EF46
:1007800091E00197F1F700C000008394F1CF9394BA
:10079000E0CFCDB7DEB7ECE036C70F9300E020E046
:1007A00030E040E050E060E470E080E890E0B7DFE7
:1007B0000F910895AAE0B0E0EFEDF3E004C74B011C
:1007C0005C01D12C2AE0422E512C612C712CEE249C
:1007D000E394ED0C01E010E00C0F1D1F0D0D111D39
:1007E000A3019201CCD6F8016083B901CA01EFE000
:1007F000F7E23197F1F700C000006115710581053E
:10080000910511F0DE2CE3CFCD2CF12CE094F09487
:100810008E2D880F880F17E3180F00E025E030E0D9
:1008200081149104A104B10439F445E050E060E181
:1008300070E084E690E006C044E050E060E170E0E3
:1008400088E790E06CDFA12CB12CE12EF12CDD20AB
:10085000E1F0E1E0F0E0EC0FFD1FED0DF11D008196
:10086000F0E10F9F80011124005A1E4FA5014E0D8B
:100870005F1D25E030E060E170E088E090E007DF98
:10088000DA948AE0A80EB11CE2CFDD24D394DC0C0C
:100890000981E0E10E9F80011124005A1E4FA7013B
:1008A000FAE0CF9E400D511D112425E030E060E1BB
:1008B00070E088E090E0EBDEA7018AE0D89E400D72
:1008C000511D112400E012E025E030E060E170E00D
:1008D00088E090E0DCDE2A96E0E191C6BEDE8EEA9A
:1008E000C5DE80E2C3DE82E0C1DE80EBBFDE88ECE5
:1008F000BDDE80E0BBDE80E1B9DE80E4B7DE81E80A
:10090000B5DE8FE7B3DE81EAB1DE88EAAFDE8FE3E2
:10091000ADDE84EAABDE83EDA9DE80E0A7DE85ED07
:10092000A5DE80EFA3DE89EDA1DE82E29FDE8AED07
:100930009DDE82E19BDE8BED99DE80E297DE8DE825
:1009400095DE84E193DE86EA91DE8FEA8FDE25CFA5
:100950000F93CF93DF93C82FD0E00FEC20E030E06F
:1009600047E050E068E070E0CE01D9DE03EF21E01F
:1009700030E047E050E068E070E0CE01D0DEDF918B
:10098000CF910F9108950F93CF93C82F0FE020E0E0
:1009900030E040E050E068E070E080E890E0BFDEEA
:1009A000CC23E9F000EF21E030E040E050E068E0E7
:1009B00070E080E890E0B3DE0FE022E030E044E059
:1009C00050E068E070E08AE190E0A9DE22E030E0EB
:1009D00042E650E068E070E08AE190E0A0DE0FEFD0
:1009E00020E030E040E050E060E470E084E090E03F
:1009F00096DE20E030E04CE750E060E470E084E018
:100A000090E08DDE00EF28E030E044E050E068E068
:100A100070E088E790E083DECF910F9108951F92F8
:100A20000F920FB60F9211248F931092850010929F
:100A300084008091CD038F5F8093CD03823029F4B1
:100A4000129810926F001092CD038F910F900FBEED
:100A50000F901F9018958AB1806E8AB98BB1806E05
:100A60008BB90A9AE1E8F0E080818560808308957F
:100A7000F894129A109285001092840010926E00E1
:100A8000EFE6F0E080818160808378940895CF93D1
:100A9000DF93DA01E1E0F0E0AF0102C0440F551F3F
:100AA0008A95E2F7CA01409595E0969FE001979FED
:100AB000D00D112490E0E0E0F0E0EC17FD0709F123
:100AC00060E070E06A177B0759F05BB1621773074B
:100AD00010F4542301C0582B5BB96F5F7F4FF2CFE6
:100AE0002A173B0729F02115310531F0992321F010
:100AF0002150310991E003C02F5F3F4F90E03196C4
:100B0000DCCFDF91CF9108951F920F920FB60F9215
:100B100011242F933F934F935F936F937F938F9302
:100B20009F93AF93BF93CF93EF93FF93C091C60072
:100B3000C33541F48091D303811111C081E08093CA
:100B4000DE030DC0C53459F48091D303882339F0F6
:100B500061E082E07DDC1092D3031092DE0380918D
:100B6000DE038823A9F0C33599F08091D303E82FE1
:100B7000F0E0ED51FC4FC083C33029F4811103C074
:100B800061E080E465DC8091D3038F5F8093D303C1
:100B9000FF91EF91CF91BF91AF919F918F917F91F5
:100BA0006F915F914F913F912F910F900FBE0F90DA
:100BB0001F9018951F920F920FB60F9211242F932A
:100BC0003F934F935F936F937F938F939F93AF93D5
:100BD000BF93CF93EF93FF93C091CE00C33541F401
:100BE0008091D303811111C081E08093DE030DC099
:100BF000C53459F48091D303882339F061E082E051
:100C000027DC1092D3031092DE038091DE03882349
:100C100061F0C33551F08091D303E82FF0E0ED513E
:100C2000FC4FC0838F5F8093D30381E090E090936B
:100C3000F0038093EF03FF91EF91CF91BF91AF91BC
:100C40009F918F917F916F915F914F913F912F91E4
:100C50000F900FBE0F901F9018958091EF03109288
:100C6000F0031092EF030895E1ECF0E080818869D1
:100C70008083E2ECF0E080818660808385E1809370
:100C8000C400E9ECF0E0808188698083EAECF0E060
:100C900080818660808381E88093CC000895A4E100
:100CA000B0E0E4E5F6E09DC493E599838A836B8325
:100CB000942FFA0183E0841B382F3E0F2E2F291B1F
:100CC000261748F42191A1E0B0E0AC0FBD1FA30F9F
:100CD000B11D2C93F1CF83E0860FE1E0F0E0EC0F43
:100CE000FD1FE80FF11D85E4808320E070E06D5F5B
:100CF0007F4F822F90E0681779077CF03091C00019
:100D000035FFFCCFE1E0F0E0EC0FFD1FE80FF91F2D
:100D100080818093C6002F5FECCF8091C00085FF5B
:100D2000FCCF6496E2E079C4E1E0E80FA82FB0E0E0
:100D3000AD51BC4F8C9120EB33E0D9019A2F921B1F
:100D4000981758F45D9191E09E0FF0E0ED51FC4F43
:100D50004081541304C0E92FF1CF81E0089580E071
:100D60000895A1E0B0E0E6EBF6E033C4DD24D394CF
:100D7000D80EE82FF0E0ED51FC4FC0801092D80360
:100D80001092D9031092DA031092DB03A12CB12C3C
:100D900003E010E0EC2CF12C21E0E21AF108EA2D3E
:100DA000ED0DAC14D0F5F0E0ED51FC4F60818FE01B
:100DB00097E20197F1F700C000008091D80390916D
:100DC000D903A091DA03B091DB03862B8093D8037B
:100DD0009093D903A093DA03B093DB03C8018A1977
:100DE0009B0930DBAE14BF04A4F48091D80390912A
:100DF000D903A091DA03B091DB03BA2FA92F982F62
:100E000088278093D8039093D903A093DA03B093F3
:100E1000DB039FEFA91AB90AC2CF90E5E92E93E050
:100E2000F92EC12CD12CA601425E5F4F870122E032
:100E300030E060E170E088E090E029DC2AE0C20E5A
:100E4000D11C80E1E80EF11C9CE3C916D10459F7CE
:100E50006091D8037091D9038091DA039091DB03FC
:100E6000A9DC2FEF8AE197EB215080409040E1F719
:100E700000C000002091DF033091E0034091E103C6
:100E80005091E203A0E7B0E064D32091D803309101
:100E9000D9034091DA035091DB0371D381E02983B8
:100EA00072DD2981822F54DD80E2E82E82E0F82E67
:100EB000C12CD12CA601425E5F4F870122E030E0B9
:100EC00060E170E088E090E0E2DB2AE0C20ED11C35
:100ED00080E1E80EF11C9CE3C916D10459F760913A
:100EE000DF037091E0038091E1039091E20362DC03
:100EF00061E088E0ADDA2196EAE087C3A9E0B0E0DE
:100F0000E3E8F7E068C387E893E10197F1F700C0F1
:100F100000008091E303893009F407C190F4843024
:100F200009F463C120F4813009F45FC0A0C18530A9
:100F300009F481C1873009F09AC188DB8091E5030B
:100F40007FC1813109F4CFC020F4803109F483C11D
:100F50008EC1823109F422C1873409F088C14091E1
:100F6000E6030091E7038091E803E4E64E9FA001C9
:100F700011246A01EE24D7FCE094FE2C9091E50345
:100F800024EF31E0929FA001939F500D112466271A
:100F900057FD6095762F4C0D5D1D6E1D7F1DF2E394
:100FA0000F9F80011124222717FD2095322F400F1B
:100FB000511F621F731F0AE0809FC0011124AA27DE
:100FC00097FDA095BA2F8A019B01080F191F2A1FB0
:100FD0003B1FC901B8010093CE031093CF032093A8
:100FE000D0033093D103E6DB42C18091D20387FD69
:100FF0003EC1EFE4F3EC3197F1F700C0000081E06F
:1010000093DE882309F43BC06091D203605480E8EA
:101010001FDA60E880E090E015DA50ECC52E52E06F
:10102000D52EE12CF12CA701435D5F4F860125E011
:1010300030E060E170E088E090E029DBFAE0EF0E5C
:10104000F11C00E1C00ED11C1EE1E116F10459F7BC
:101050002AE230E56EEF80E0215030406040804071
:10106000D9F7000000E025E030E049E250E060E11F
:1010700070E08EE190E053DB43EC53E031C040E898
:10108000C42E42E0D42EE12CF12CA701435D5F4F2A
:10109000860125E030E060E170E088E090E0F7DA7A
:1010A0009AE0E90EF11CE0E1CE0ED11CF8E2EF1659
:1010B000F10459F70AE210E52EEF30E0015010403C
:1010C00020403040D9F7000000E025E030E04DE25C
:1010D00050E060E170E08CE390E021DB45EC53E010
:1010E00061E082E0C3C059DB80E04DDC30E0C32E1C
:1010F00031E0D32EE12CF12CA701425E5F4F860137
:1011000022E030E060E170E088E090E0C0DA6AE080
:10111000E60EF11C80E1C80ED11C9CE3E916F10437
:1011200059F761E080E194D9A2C087E090E08DD9C1
:101130008093ED03E12CF12C08E08091ED0390E029
:10114000E816F906D4F49E012F5F3F4F690110E0C5
:10115000812F800F90E079D9F60181936F011F5F95
:101160001630B1F70A5FAE014F5F5F4F66E086E071
:1011700096DDFFEFEF1AFF0AE0CF60E087E090E036
:1011800061D987E090E061D98093ED03982F990FA2
:10119000890F880F885F8093EE0369C08091CE032A
:1011A0009091CF03A091D003B091D1038987988704
:1011B000AF838B2F9927AA27BB278093CE039093C9
:1011C000CF03A093D003B093D103AE01495F5F4F2B
:1011D00063E082E164DD2AE030E048EE53E06EE552
:1011E00071E087E090E053DC42C03091E403E5EE2B
:1011F000F3E0DE01119620E04AE0231761F08191CF
:10120000642FB1D1592F60E1869FC0011124852B35
:101210008D932F5FF2CF098110E02A8130E04B815E
:1012200050E06C8170E08D8190E053D943EC53E045
:1012300061E083E01BC081E094DD08DA8091E60381
:10124000CAD92AE030E048EE53E06EE571E086E06E
:1012500090E01DDCEBCF8091D20384FF03C047EC0C
:1012600053E002C049EC53E061E081E118DD60E049
:1012700082E0EED82996E8E0CAC1ECE7F0E0808190
:10128000816C8083EAE7F0E08081846E808320981F
:1012900080E094E09093DD038093DC030895A3E065
:1012A000B0E0E4E5F9E08DC183EC99E00197F1F756
:1012B00000C000008091DC039091DD039C0121526D
:1012C0003340273C310598F02A563F4F25393105E8
:1012D00008F4F0C028533F4F2539310508F4F0C019
:1012E000895C9109873C910508F4F0C0D2C04AE0BE
:1012F000C42ED12CE12CF12C8090DF039090E003E0
:10130000A090E103B090E2038C0C9D1CAE1CBF1CAE
:101310008092DF039092E003A092E103B092E20397
:101320008E010C5F1F4F1601270184E0682E712C7F
:10133000F80122928F01232C342C452C5524682D42
:10134000C30180D8892C9A2CAB2CBB24FFEF6F1AD9
:101350007F0A27E06216710459F7AE014F5F5F4FB5
:1013600063E088E09CDC86E09091D20396FFB5C0F4
:101370008091D20386FD89C06091ED036F5F609319
:10138000ED0387E090E05ED866E088E6D2D89091E1
:10139000EE0321E0290F2093EE03682F892F90E0C0
:1013A00051D887E893E10197F1F700C0000065E0AC
:1013B00088E6BFD89091EE0321E0290F2093EE0339
:1013C000682F892F90E03ED8E7E8F3E13197F1F7F5
:1013D00000C0000064E088E6ACD89091EE0321E004
:1013E000290F2093EE03682F892F90E02BD887E8F0
:1013F00093E10197F1F700C0000062E088E699D818
:101400009091EE0321E0290F2093EE03682F892F9E
:1014100090E018D8E7E8F3E13197F1F700C0000059
:1014200061E088E686D89091EE0321E0290F2093B1
:10143000EE03682F892F90E005D887E893E10197A4
:10144000F1F700C000001091EE0381E0810F80935E
:10145000EE03C701B6012AE030E040E050E08FD053
:10146000622F812F90E00E94220261E080E20E94C0
:1014700028026091D20380E090E00E942202E7E817
:10148000F3E13197F1F700C000008091D20384FFAF
:1014900031C060E081E00E94280260E080E40E94A8
:1014A000280287E893E10197F1F700C00000239636
:1014B000E2E1A3C032E3C32ED12CE12CF12C1CCFEE
:1014C00024E6C22ED12CE12CF12C16CF94EFC92E9C
:1014D000DD24D394E12CF12C0FCF3FE79AE1E6E035
:1014E00031509040E040E1F700C00000815009F029
:1014F0003BCF3ECFBDDA8091D20383FF17C020914E
:10150000DF033091E0034091E1035091E203A0E753
:10151000B0E01FD02091D8033091D9034091DA0375
:101520005091DB032CD0822F90E012DA6091DF0320
:101530007091E0038091E1039091E2033BD92AE0AE
:1015400030E048EE53E06EE571E085E090E09FDA30
:10155000A0CF6ED0A59F900DB49F900DA49F800D3D
:10156000911D11240895991B79E004C0991F9617C5
:1015700008F0961B881F7A95C9F780950895A1E217
:101580001A2EAA1BBB1BFD010DC0AA1FBB1FEE1FFD
:10159000FF1FA217B307E407F50720F0A21BB30B48
:1015A000E40BF50B661F771F881F991F1A9469F7C4
:1015B00060957095809590959B01AC01BD01CF0120
:1015C00008952F923F924F925F926F927F928F92E7
:1015D0009F92AF92BF92CF92DF92EF92FF920F93C2
:1015E0001F93CF93DF93CDB7DEB7CA1BDB0B0FB6CC
:1015F000F894DEBF0FBECDBF09942A883988488889
:101600005F846E847D848C849B84AA84B984C8841E
:10161000DF80EE80FD800C811B81AA81B981CE0F15
:10162000D11D0FB6F894DEBF0FBECDBFED010895FA
:10163000A29FB001B39FC001A39F700D811D112413
:10164000911DB29F700D811D1124911D0895F9996E
:10165000FECF92BD81BDF89A992780B50895262FB7
:10166000F999FECF1FBA92BD81BD20BD0FB6F89487
:0E167000FA9AF99A0FBE01960895F894FFCFEA
:10167E00FFFFFF0707070707FFFFFFE0E0E0E0E0DF
:10168E000303FFFFC0FF00FF0000FFFF01FF00FF8D
:10169E007EFFE7FF7E00FFFFF8F8D8D8D8D8FBFB17
:1016AE0000FFFFFF0000FFFFFFFF01FFFF00FFFF36
:1016BE00E3FFFFE300FFFF301B18181B18FBFB00B6
:1016CE000707070707FFFFFFE0E0E0E0E0FFFFFF8F
:1016DE00FEFFFF1F1FFFFFFE7FFFFFF8F8FFFF7FDC
:1016EE000000FFFFFFFF00000000FFFFFFFF0000F4
:1016FE00CFCFCFCFFFFFFFFFFFFFFFFFF3F3F3F3DC
:10170E00CFCFCFCFFFFFFFFFF3F3F3F3FFFFFFFFCB
:10171E00FFFFFF00FFFFFF0007070707FFFFFF07A1
:10172E00FFFFFFFFCFCFCFCFF3F3F3F3FFFFFFFFAB
:10173E00FFFFFFFFC0C0C0C0FFFFFFE1E1FFFFFFE3
:10174E000F0F0F0FFFFFFFFF00000000FFFFFFFF57
:10175E00FEFFFFC7C7FFFFFE7FFFFFE3E3FFFF7F35
:10176E00FFFFFFC7C7FFFFFF0101010101FFFFFFE1
:10177E007EE7E77E0030FFFFE6EECECEC6C0CFCFCF
:10178E0000007C7C7C7C000000003E3E3E3E000063
:10179E00FFFFFF0707070707FFFFFFE0E0E0E0E0BE
:1017AE0003FFFFFF03C0FFFF303F0F3F30017F7F7E
:1017BE0066667E3F3F7E66661B1B1B1F1F1BFBFB69
:1017CE00C3C3C3C3C3C3DFDFFCFCCCCCCCCCFCFC9B
:1017DE007EE7E77E00FF18FF060606060606FEFEFB
:1017EE000707070707FFFFFFE0E0E0E0E0FFFFFF6E
:1017FE007C7F077F7C007F7FFBFBDBDBDBDBDFDFC0
:10180E001EFE1EFE1EFFE0FF787F787F78FF07FF2B
:10181E00000606FEFE0606000000007F7F000000A8
:10182E00000606FEFE0606000000007F7F00000098
:10183E00F8FF07FFF870FFFF3179FCCDCDFC793151
:10184E008383FBFB8383BFBF3179FDCDCDFD793122
:10185E00FCFEFCF8FCFEFC00030F3F7F3F0F030075
:10186E00FFFFFF0707070707FFFFFFE0E0E0E0E0ED
:10187E0007FFFF07F0FF00FFFE1F1FFE01FF00FF27
:10188E00333F3F33333F3F33FBFBFBDFDFFBFBFBE2
:10189E003F3F33333333333373FBFBDBDBFBFB7302
:1018AE00FBFBDBDBDBDBDFDF363636373736F6F6D8
:1018BE000707070707FFFFFFE0E0E0E0E0FFFFFF9D
:1018CE00FFFFFF0707070707FFFFFFE0E0E0E0E08D
:1018DE003F3F33B3B3333F3F1B1B1B1B1B1BFBFB9A
:1018EE00C7FFFFC7C7FFFFC7E1FDFDE1E1FDFDE15A
:1018FE00C3C3C3C3C3C3DFDFFCFCCCCCCCCCFCFC6A
:10190E007EE7E77E00FF18FF060606060606FEFEC9
:10191E000707070707FFFFFFE0E0E0E0E0FFFFFF3C
:10192E003132333431323334313233343132333481
:0C193E000064007300660079006E000079
:00000001FF
